8=FIX.4.4|9=76|35=A|34=1|49=T-BIGOH1M|52=20230921-08:38:24.673|56=T-GMEX|98=0|108=30|141=Y|10=086|8=FIX.4.4|9=107|35=3|34=2|49=T-BIGOH1M|52=20230921-08:38:25.044|56=T-GMEX|45=7|58=Invalid tag number|371=22000|372=W|373=0|10=133|8=FIX.4.4|9=107|35=3|34=3|49=T-BIGOH1M|52=20230921-08:38:25.069|56=T-GMEX|45=8|58=Invalid tag number|371=22000|372=W|373=0|10=142|8=FIX.4.4|9=107|35=3|34=4|49=T-BIGOH1M|52=20230921-08:38:25.091|56=T-GMEX|45=9|58=Invalid tag number|371=22000|372=W|373=0|10=139|8=FIX.4.4|9=108|35=3|34=5|49=T-BIGOH1M|52=20230921-08:38:25.115|56=T-GMEX|45=10|58=Invalid tag number|371=22000|372=W|373=0|10=178|8=FIX.4.4|9=108|35=3|34=6|49=T-BIGOH1M|52=20230921-08:38:25.145|56=T-GMEX|45=11|58=Invalid tag number|371=22000|372=W|373=0|10=183|8=FIX.4.4|9=108|35=3|34=7|49=T-BIGOH1M|52=20230921-08:38:25.177|56=T-GMEX|45=12|58=Invalid tag number|371=22000|372=W|373=0|10=190|8=FIX.4.4|9=108|35=3|34=8|49=T-BIGOH1M|52=20230921-08:38:25.202|56=T-GMEX|45=13|58=Invalid tag number|371=22000|372=W|373=0|10=181|8=FIX.4.4|9=108|35=3|34=9|49=T-BIGOH1M|52=20230921-08:38:25.247|56=T-GMEX|45=14|58=Invalid tag number|371=22000|372=W|373=0|10=192|8=FIX.4.4|9=109|35=3|34=10|49=T-BIGOH1M|52=20230921-08:38:25.270|56=T-GMEX|45=15|58=Invalid tag number|371=22000|372=W|373=0|10=230|8=FIX.4.4|9=109|35=3|34=11|49=T-BIGOH1M|52=20230921-08:38:25.291|56=T-GMEX|45=16|58=Invalid tag number|371=22000|372=W|373=0|10=235|8=FIX.4.4|9=109|35=3|34=12|49=T-BIGOH1M|52=20230921-08:38:25.314|56=T-GMEX|45=17|58=Invalid tag number|371=22000|372=W|373=0|10=233|8=FIX.4.4|9=109|35=3|34=13|49=T-BIGOH1M|52=20230921-08:38:25.340|56=T-GMEX|45=18|58=Invalid tag number|371=22000|372=W|373=0|10=234|8=FIX.4.4|9=109|35=3|34=14|49=T-BIGOH1M|52=20230921-08:38:25.362|56=T-GMEX|45=19|58=Invalid tag number|371=22000|372=W|373=0|10=240|8=FIX.4.4|9=109|35=3|34=15|49=T-BIGOH1M|52=20230921-08:38:25.386|56=T-GMEX|45=20|58=Invalid tag number|371=22000|372=W|373=0|10=239|8=FIX.4.4|9=109|35=3|34=16|49=T-BIGOH1M|52=20230921-08:38:25.409|56=T-GMEX|45=21|58=Invalid tag number|371=22000|372=W|373=0|10=237|8=FIX.4.4|9=109|35=3|34=17|49=T-BIGOH1M|52=20230921-08:38:25.430|56=T-GMEX|45=22|58=Invalid tag number|371=22000|372=W|373=0|10=233|8=FIX.4.4|9=109|35=3|34=18|49=T-BIGOH1M|52=20230921-08:38:25.452|56=T-GMEX|45=23|58=Invalid tag number|371=22000|372=W|373=0|10=239|8=FIX.4.4|9=109|35=3|34=19|49=T-BIGOH1M|52=20230921-08:38:25.473|56=T-GMEX|45=24|58=Invalid tag number|371=22000|372=W|373=0|10=244|8=FIX.4.4|9=109|35=3|34=20|49=T-BIGOH1M|52=20230921-08:38:25.497|56=T-GMEX|45=25|58=Invalid tag number|371=22000|372=W|373=0|10=243|8=FIX.4.4|9=109|35=3|34=21|49=T-BIGOH1M|52=20230921-08:38:25.520|56=T-GMEX|45=26|58=Invalid tag number|371=22000|372=W|373=0|10=232|8=FIX.4.4|9=109|35=3|34=22|49=T-BIGOH1M|52=20230921-08:38:25.541|56=T-GMEX|45=27|58=Invalid tag number|371=22000|372=W|373=0|10=237|8=FIX.4.4|9=109|35=3|34=23|49=T-BIGOH1M|52=20230921-08:38:25.564|56=T-GMEX|45=28|58=Invalid tag number|371=22000|372=W|373=0|10=244|8=FIX.4.4|9=109|35=3|34=24|49=T-BIGOH1M|52=20230921-08:38:25.586|56=T-GMEX|45=29|58=Invalid tag number|371=22000|372=W|373=0|10=250|8=FIX.4.4|9=109|35=3|34=25|49=T-BIGOH1M|52=20230921-08:38:25.607|56=T-GMEX|45=30|58=Invalid tag number|371=22000|372=W|373=0|10=237|8=FIX.4.4|9=109|35=3|34=26|49=T-BIGOH1M|52=20230921-08:38:25.628|56=T-GMEX|45=31|58=Invalid tag number|371=22000|372=W|373=0|10=242|8=FIX.4.4|9=109|35=3|34=27|49=T-BIGOH1M|52=20230921-08:38:25.652|56=T-GMEX|45=32|58=Invalid tag number|371=22000|372=W|373=0|10=241|8=FIX.4.4|9=109|35=3|34=28|49=T-BIGOH1M|52=20230921-08:38:25.677|56=T-GMEX|45=33|58=Invalid tag number|371=22000|372=W|373=0|10=250|8=FIX.4.4|9=109|35=3|34=29|49=T-BIGOH1M|52=20230921-08:38:25.703|56=T-GMEX|45=34|58=Invalid tag number|371=22000|372=W|373=0|10=242|8=FIX.4.4|9=109|35=3|34=30|49=T-BIGOH1M|52=20230921-08:38:25.726|56=T-GMEX|45=35|58=Invalid tag number|371=22000|372=W|373=0|10=240|8=FIX.4.4|9=109|35=3|34=31|49=T-BIGOH1M|52=20230921-08:38:25.749|56=T-GMEX|45=36|58=Invalid tag number|371=22000|372=W|373=0|10=247|8=FIX.4.4|9=109|35=3|34=32|49=T-BIGOH1M|52=20230921-08:38:25.770|56=T-GMEX|45=37|58=Invalid tag number|371=22000|372=W|373=0|10=243|8=FIX.4.4|9=109|35=3|34=33|49=T-BIGOH1M|52=20230921-08:38:25.793|56=T-GMEX|45=38|58=Invalid tag number|371=22000|372=W|373=0|10=250|8=FIX.4.4|9=109|35=3|34=34|49=T-BIGOH1M|52=20230921-08:38:25.814|56=T-GMEX|45=39|58=Invalid tag number|371=22000|372=W|373=0|10=246|8=FIX.4.4|9=109|35=3|34=35|49=T-BIGOH1M|52=20230921-08:38:25.836|56=T-GMEX|45=40|58=Invalid tag number|371=22000|372=W|373=0|10=243|8=FIX.4.4|9=109|35=3|34=36|49=T-BIGOH1M|52=20230921-08:38:25.858|56=T-GMEX|45=41|58=Invalid tag number|371=22000|372=W|373=0|10=249|8=FIX.4.4|9=109|35=3|34=37|49=T-BIGOH1M|52=20230921-08:38:25.883|56=T-GMEX|45=42|58=Invalid tag number|371=22000|372=W|373=0|10=249|8=FIX.4.4|9=109|35=3|34=38|49=T-BIGOH1M|52=20230921-08:38:25.908|56=T-GMEX|45=43|58=Invalid tag number|371=22000|372=W|373=0|10=249|8=FIX.4.4|9=109|35=3|34=39|49=T-BIGOH1M|52=20230921-08:38:25.935|56=T-GMEX|45=44|58=Invalid tag number|371=22000|372=W|373=0|10=251|8=FIX.4.4|9=109|35=3|34=40|49=T-BIGOH1M|52=20230921-08:38:25.959|56=T-GMEX|45=45|58=Invalid tag number|371=22000|372=W|373=0|10=250|8=FIX.4.4|9=109|35=3|34=41|49=T-BIGOH1M|52=20230921-08:38:25.980|56=T-GMEX|45=46|58=Invalid tag number|371=22000|372=W|373=0|10=246|8=FIX.4.4|9=109|35=3|34=42|49=T-BIGOH1M|52=20230921-08:38:26.002|56=T-GMEX|45=47|58=Invalid tag number|371=22000|372=W|373=0|10=234|8=FIX.4.4|9=109|35=3|34=43|49=T-BIGOH1M|52=20230921-08:38:26.025|56=T-GMEX|45=48|58=Invalid tag number|371=22000|372=W|373=0|10=241|8=FIX.4.4|9=109|35=3|34=44|49=T-BIGOH1M|52=20230921-08:38:26.047|56=T-GMEX|45=49|58=Invalid tag number|371=22000|372=W|373=0|10=247|8=FIX.4.4|9=109|35=3|34=45|49=T-BIGOH1M|52=20230921-08:38:26.068|56=T-GMEX|45=50|58=Invalid tag number|371=22000|372=W|373=0|10=243|8=FIX.4.4|9=109|35=3|34=46|49=T-BIGOH1M|52=20230921-08:38:26.091|56=T-GMEX|45=51|58=Invalid tag number|371=22000|372=W|373=0|10=241|8=FIX.4.4|9=109|35=3|34=47|49=T-BIGOH1M|52=20230921-08:38:26.114|56=T-GMEX|45=52|58=Invalid tag number|371=22000|372=W|373=0|10=239|8=FIX.4.4|9=109|35=3|34=48|49=T-BIGOH1M|52=20230921-08:38:26.138|56=T-GMEX|45=53|58=Invalid tag number|371=22000|372=W|373=0|10=247|8=FIX.4.4|9=109|35=3|34=49|49=T-BIGOH1M|52=20230921-08:38:26.160|56=T-GMEX|45=54|58=Invalid tag number|371=22000|372=W|373=0|10=244|8=FIX.4.4|9=109|35=3|34=50|49=T-BIGOH1M|52=20230921-08:38:26.184|56=T-GMEX|45=55|58=Invalid tag number|371=22000|372=W|373=0|10=243|8=FIX.4.4|9=109|35=3|34=51|49=T-BIGOH1M|52=20230921-08:38:26.206|56=T-GMEX|45=56|58=Invalid tag number|371=22000|372=W|373=0|10=240|8=FIX.4.4|9=109|35=3|34=52|49=T-BIGOH1M|52=20230921-08:38:26.228|56=T-GMEX|45=57|58=Invalid tag number|371=22000|372=W|373=0|10=246|8=FIX.4.4|9=109|35=3|34=53|49=T-BIGOH1M|52=20230921-08:38:26.253|56=T-GMEX|45=58|58=Invalid tag number|371=22000|372=W|373=0|10=246|8=FIX.4.4|9=109|35=3|34=54|49=T-BIGOH1M|52=20230921-08:38:26.275|56=T-GMEX|45=59|58=Invalid tag number|371=22000|372=W|373=0|10=252|8=FIX.4.4|9=109|35=3|34=55|49=T-BIGOH1M|52=20230921-08:38:26.297|56=T-GMEX|45=60|58=Invalid tag number|371=22000|372=W|373=0|10=249|8=FIX.4.4|9=109|35=3|34=56|49=T-BIGOH1M|52=20230921-08:38:26.319|56=T-GMEX|45=61|58=Invalid tag number|371=22000|372=W|373=0|10=246|8=FIX.4.4|9=109|35=3|34=57|49=T-BIGOH1M|52=20230921-08:38:26.341|56=T-GMEX|45=62|58=Invalid tag number|371=22000|372=W|373=0|10=243|8=FIX.4.4|9=109|35=3|34=58|49=T-BIGOH1M|52=20230921-08:38:26.367|56=T-GMEX|45=63|58=Invalid tag number|371=22000|372=W|373=0|10=253|8=FIX.4.4|9=109|35=3|34=59|49=T-BIGOH1M|52=20230921-08:38:26.387|56=T-GMEX|45=64|58=Invalid tag number|371=22000|372=W|373=0|10=001|8=FIX.4.4|9=109|35=3|34=60|49=T-BIGOH1M|52=20230921-08:38:26.410|56=T-GMEX|45=65|58=Invalid tag number|371=22000|372=W|373=0|10=237|8=FIX.4.4|9=109|35=3|34=61|49=T-BIGOH1M|52=20230921-08:38:26.432|56=T-GMEX|45=66|58=Invalid tag number|371=22000|372=W|373=0|10=243|8=FIX.4.4|9=109|35=3|34=62|49=T-BIGOH1M|52=20230921-08:38:26.455|56=T-GMEX|45=67|58=Invalid tag number|371=22000|372=W|373=0|10=250|8=FIX.4.4|9=109|35=3|34=63|49=T-BIGOH1M|52=20230921-08:38:26.477|56=T-GMEX|45=68|58=Invalid tag number|371=22000|372=W|373=0|10=000|8=FIX.4.4|9=109|35=3|34=64|49=T-BIGOH1M|52=20230921-08:38:26.498|56=T-GMEX|45=69|58=Invalid tag number|371=22000|372=W|373=0|10=005|8=FIX.4.4|9=109|35=3|34=65|49=T-BIGOH1M|52=20230921-08:38:26.521|56=T-GMEX|45=70|58=Invalid tag number|371=22000|372=W|373=0|10=241|8=FIX.4.4|9=109|35=3|34=66|49=T-BIGOH1M|52=20230921-08:38:26.544|56=T-GMEX|45=71|58=Invalid tag number|371=22000|372=W|373=0|10=248|8=FIX.4.4|9=109|35=3|34=67|49=T-BIGOH1M|52=20230921-08:38:26.569|56=T-GMEX|45=72|58=Invalid tag number|371=22000|372=W|373=0|10=001|8=FIX.4.4|9=109|35=3|34=68|49=T-BIGOH1M|52=20230921-08:38:26.594|56=T-GMEX|45=73|58=Invalid tag number|371=22000|372=W|373=0|10=001|8=FIX.4.4|9=109|35=3|34=69|49=T-BIGOH1M|52=20230921-08:38:26.620|56=T-GMEX|45=74|58=Invalid tag number|371=22000|372=W|373=0|10=249|8=FIX.4.4|9=109|35=3|34=70|49=T-BIGOH1M|52=20230921-08:38:26.645|56=T-GMEX|45=75|58=Invalid tag number|371=22000|372=W|373=0|10=249|8=FIX.4.4|9=109|35=3|34=71|49=T-BIGOH1M|52=20230921-08:38:26.671|56=T-GMEX|45=76|58=Invalid tag number|371=22000|372=W|373=0|10=250|8=FIX.4.4|9=109|35=3|34=72|49=T-BIGOH1M|52=20230921-08:38:26.699|56=T-GMEX|45=77|58=Invalid tag number|371=22000|372=W|373=0|10=006|8=FIX.4.4|9=109|35=3|34=73|49=T-BIGOH1M|52=20230921-08:38:26.725|56=T-GMEX|45=78|58=Invalid tag number|371=22000|372=W|373=0|10=254|8=FIX.4.4|9=109|35=3|34=74|49=T-BIGOH1M|52=20230921-08:38:26.751|56=T-GMEX|45=79|58=Invalid tag number|371=22000|372=W|373=0|10=255|8=FIX.4.4|9=109|35=3|34=75|49=T-BIGOH1M|52=20230921-08:38:26.778|56=T-GMEX|45=80|58=Invalid tag number|371=22000|372=W|373=0|10=001|8=FIX.4.4|9=109|35=3|34=76|49=T-BIGOH1M|52=20230921-08:38:26.805|56=T-GMEX|45=81|58=Invalid tag number|371=22000|372=W|373=0|10=250|8=FIX.4.4|9=109|35=3|34=77|49=T-BIGOH1M|52=20230921-08:38:26.831|56=T-GMEX|45=82|58=Invalid tag number|371=22000|372=W|373=0|10=251|8=FIX.4.4|9=109|35=3|34=78|49=T-BIGOH1M|52=20230921-08:38:26.854|56=T-GMEX|45=83|58=Invalid tag number|371=22000|372=W|373=0|10=002|8=FIX.4.4|9=109|35=3|34=79|49=T-BIGOH1M|52=20230921-08:38:26.878|56=T-GMEX|45=84|58=Invalid tag number|371=22000|372=W|373=0|10=010|8=FIX.4.4|9=109|35=3|34=80|49=T-BIGOH1M|52=20230921-08:38:26.906|56=T-GMEX|45=85|58=Invalid tag number|371=22000|372=W|373=0|10=251|8=FIX.4.4|9=109|35=3|34=81|49=T-BIGOH1M|52=20230921-08:38:26.930|56=T-GMEX|45=86|58=Invalid tag number|371=22000|372=W|373=0|10=250|8=FIX.4.4|9=109|35=3|34=82|49=T-BIGOH1M|52=20230921-08:38:26.956|56=T-GMEX|45=87|58=Invalid tag number|371=22000|372=W|373=0|10=004|8=FIX.4.4|9=109|35=3|34=83|49=T-BIGOH1M|52=20230921-08:38:26.982|56=T-GMEX|45=88|58=Invalid tag number|371=22000|372=W|373=0|10=005|8=FIX.4.4|9=109|35=3|34=84|49=T-BIGOH1M|52=20230921-08:38:27.006|56=T-GMEX|45=89|58=Invalid tag number|371=22000|372=W|373=0|10=251|8=FIX.4.4|9=109|35=3|34=85|49=T-BIGOH1M|52=20230921-08:38:27.036|56=T-GMEX|45=90|58=Invalid tag number|371=22000|372=W|373=0|10=247|8=FIX.4.4|9=109|35=3|34=86|49=T-BIGOH1M|52=20230921-08:38:27.062|56=T-GMEX|45=91|58=Invalid tag number|371=22000|372=W|373=0|10=248|8=FIX.4.4|9=109|35=3|34=87|49=T-BIGOH1M|52=20230921-08:38:27.087|56=T-GMEX|45=92|58=Invalid tag number|371=22000|372=W|373=0|10=001|8=FIX.4.4|9=109|35=3|34=88|49=T-BIGOH1M|52=20230921-08:38:27.111|56=T-GMEX|45=93|58=Invalid tag number|371=22000|372=W|373=0|10=247|8=FIX.4.4|9=109|35=3|34=89|49=T-BIGOH1M|52=20230921-08:38:27.135|56=T-GMEX|45=94|58=Invalid tag number|371=22000|372=W|373=0|10=255|8=FIX.4.4|9=109|35=3|34=90|49=T-BIGOH1M|52=20230921-08:38:27.160|56=T-GMEX|45=95|58=Invalid tag number|371=22000|372=W|373=0|10=246|8=FIX.4.4|9=109|35=3|34=91|49=T-BIGOH1M|52=20230921-08:38:27.182|56=T-GMEX|45=96|58=Invalid tag number|371=22000|372=W|373=0|10=252|8=FIX.4.4|9=109|35=3|34=92|49=T-BIGOH1M|52=20230921-08:38:27.208|56=T-GMEX|45=97|58=Invalid tag number|371=22000|372=W|373=0|10=253|8=FIX.4.4|9=109|35=3|34=93|49=T-BIGOH1M|52=20230921-08:38:27.230|56=T-GMEX|45=98|58=Invalid tag number|371=22000|372=W|373=0|10=250|8=FIX.4.4|9=109|35=3|34=94|49=T-BIGOH1M|52=20230921-08:38:27.254|56=T-GMEX|45=99|58=Invalid tag number|371=22000|372=W|373=0|10=002|8=FIX.4.4|9=110|35=3|34=95|49=T-BIGOH1M|52=20230921-08:38:27.277|56=T-GMEX|45=100|58=Invalid tag number|371=22000|372=W|373=0|10=031|8=FIX.4.4|9=110|35=3|34=96|49=T-BIGOH1M|52=20230921-08:38:27.300|56=T-GMEX|45=101|58=Invalid tag number|371=22000|372=W|373=0|10=020|8=FIX.4.4|9=110|35=3|34=97|49=T-BIGOH1M|52=20230921-08:38:27.323|56=T-GMEX|45=102|58=Invalid tag number|371=22000|372=W|373=0|10=027|8=FIX.4.4|9=110|35=3|34=98|49=T-BIGOH1M|52=20230921-08:38:27.345|56=T-GMEX|45=103|58=Invalid tag number|371=22000|372=W|373=0|10=033|8=FIX.4.4|9=110|35=3|34=99|49=T-BIGOH1M|52=20230921-08:38:27.368|56=T-GMEX|45=104|58=Invalid tag number|371=22000|372=W|373=0|10=040|8=FIX.4.4|9=111|35=3|34=100|49=T-BIGOH1M|52=20230921-08:38:27.392|56=T-GMEX|45=105|58=Invalid tag number|371=22000|372=W|373=0|10=070|8=FIX.4.4|9=111|35=3|34=101|49=T-BIGOH1M|52=20230921-08:38:27.416|56=T-GMEX|45=106|58=Invalid tag number|371=22000|372=W|373=0|10=069|8=FIX.4.4|9=111|35=3|34=102|49=T-BIGOH1M|52=20230921-08:38:27.437|56=T-GMEX|45=107|58=Invalid tag number|371=22000|372=W|373=0|10=074|8=FIX.4.4|9=111|35=3|34=103|49=T-BIGOH1M|52=20230921-08:38:27.457|56=T-GMEX|45=108|58=Invalid tag number|371=22000|372=W|373=0|10=078|8=FIX.4.4|9=111|35=3|34=104|49=T-BIGOH1M|52=20230921-08:38:27.478|56=T-GMEX|45=109|58=Invalid tag number|371=22000|372=W|373=0|10=083|8=FIX.4.4|9=111|35=3|34=105|49=T-BIGOH1M|52=20230921-08:38:27.500|56=T-GMEX|45=110|58=Invalid tag number|371=22000|372=W|373=0|10=062|8=FIX.4.4|9=111|35=3|34=106|49=T-BIGOH1M|52=20230921-08:38:27.520|56=T-GMEX|45=111|58=Invalid tag number|371=22000|372=W|373=0|10=066|8=FIX.4.4|9=111|35=3|34=107|49=T-BIGOH1M|52=20230921-08:38:27.543|56=T-GMEX|45=112|58=Invalid tag number|371=22000|372=W|373=0|10=073|8=FIX.4.4|9=111|35=3|34=108|49=T-BIGOH1M|52=20230921-08:38:27.564|56=T-GMEX|45=113|58=Invalid tag number|371=22000|372=W|373=0|10=078|8=FIX.4.4|9=111|35=3|34=109|49=T-BIGOH1M|52=20230921-08:38:27.586|56=T-GMEX|45=114|58=Invalid tag number|371=22000|372=W|373=0|10=084|8=FIX.4.4|9=111|35=3|34=110|49=T-BIGOH1M|52=20230921-08:38:27.608|56=T-GMEX|45=115|58=Invalid tag number|371=22000|372=W|373=0|10=072|8=FIX.4.4|9=111|35=3|34=111|49=T-BIGOH1M|52=20230921-08:38:27.631|56=T-GMEX|45=116|58=Invalid tag number|371=22000|372=W|373=0|10=070|8=FIX.4.4|9=111|35=3|34=112|49=T-BIGOH1M|52=20230921-08:38:27.652|56=T-GMEX|45=117|58=Invalid tag number|371=22000|372=W|373=0|10=075|8=FIX.4.4|9=111|35=3|34=113|49=T-BIGOH1M|52=20230921-08:38:27.674|56=T-GMEX|45=118|58=Invalid tag number|371=22000|372=W|373=0|10=081|8=FIX.4.4|9=111|35=3|34=114|49=T-BIGOH1M|52=20230921-08:38:27.695|56=T-GMEX|45=119|58=Invalid tag number|371=22000|372=W|373=0|10=086|8=FIX.4.4|9=111|35=3|34=115|49=T-BIGOH1M|52=20230921-08:38:27.717|56=T-GMEX|45=120|58=Invalid tag number|371=22000|372=W|373=0|10=074|8=FIX.4.4|9=111|35=3|34=116|49=T-BIGOH1M|52=20230921-08:38:27.738|56=T-GMEX|45=121|58=Invalid tag number|371=22000|372=W|373=0|10=079|8=FIX.4.4|9=111|35=3|34=117|49=T-BIGOH1M|52=20230921-08:38:27.760|56=T-GMEX|45=122|58=Invalid tag number|371=22000|372=W|373=0|10=076|8=FIX.4.4|9=111|35=3|34=118|49=T-BIGOH1M|52=20230921-08:38:27.782|56=T-GMEX|45=123|58=Invalid tag number|371=22000|372=W|373=0|10=082|8=FIX.4.4|9=111|35=3|34=119|49=T-BIGOH1M|52=20230921-08:38:27.804|56=T-GMEX|45=124|58=Invalid tag number|371=22000|372=W|373=0|10=079|8=FIX.4.4|9=111|35=3|34=120|49=T-BIGOH1M|52=20230921-08:38:27.827|56=T-GMEX|45=125|58=Invalid tag number|371=22000|372=W|373=0|10=077|8=FIX.4.4|9=111|35=3|34=121|49=T-BIGOH1M|52=20230921-08:38:27.849|56=T-GMEX|45=126|58=Invalid tag number|371=22000|372=W|373=0|10=083|8=FIX.4.4|9=111|35=3|34=122|49=T-BIGOH1M|52=20230921-08:38:27.874|56=T-GMEX|45=127|58=Invalid tag number|371=22000|372=W|373=0|10=083|8=FIX.4.4|9=111|35=3|34=123|49=T-BIGOH1M|52=20230921-08:38:27.897|56=T-GMEX|45=128|58=Invalid tag number|371=22000|372=W|373=0|10=090|8=FIX.4.4|9=111|35=3|34=124|49=T-BIGOH1M|52=20230921-08:38:27.921|56=T-GMEX|45=129|58=Invalid tag number|371=22000|372=W|373=0|10=080|8=FIX.4.4|9=111|35=3|34=125|49=T-BIGOH1M|52=20230921-08:38:27.945|56=T-GMEX|45=130|58=Invalid tag number|371=22000|372=W|373=0|10=079|8=FIX.4.4|9=111|35=3|34=126|49=T-BIGOH1M|52=20230921-08:38:27.966|56=T-GMEX|45=131|58=Invalid tag number|371=22000|372=W|373=0|10=084|8=FIX.4.4|9=111|35=3|34=127|49=T-BIGOH1M|52=20230921-08:38:27.989|56=T-GMEX|45=132|58=Invalid tag number|371=22000|372=W|373=0|10=091|8=FIX.4.4|9=111|35=3|34=128|49=T-BIGOH1M|52=20230921-08:38:28.010|56=T-GMEX|45=133|58=Invalid tag number|371=22000|372=W|373=0|10=069|8=FIX.4.4|9=111|35=3|34=129|49=T-BIGOH1M|52=20230921-08:38:28.031|56=T-GMEX|45=134|58=Invalid tag number|371=22000|372=W|373=0|10=074|8=FIX.4.4|9=111|35=3|34=130|49=T-BIGOH1M|52=20230921-08:38:28.055|56=T-GMEX|45=135|58=Invalid tag number|371=22000|372=W|373=0|10=073|8=FIX.4.4|9=111|35=3|34=131|49=T-BIGOH1M|52=20230921-08:38:28.077|56=T-GMEX|45=136|58=Invalid tag number|371=22000|372=W|373=0|10=079|8=FIX.4.4|9=111|35=3|34=132|49=T-BIGOH1M|52=20230921-08:38:28.099|56=T-GMEX|45=137|58=Invalid tag number|371=22000|372=W|373=0|10=085|8=FIX.4.4|9=111|35=3|34=133|49=T-BIGOH1M|52=20230921-08:38:28.121|56=T-GMEX|45=138|58=Invalid tag number|371=22000|372=W|373=0|10=073|8=FIX.4.4|9=111|35=3|34=134|49=T-BIGOH1M|52=20230921-08:38:28.141|56=T-GMEX|45=139|58=Invalid tag number|371=22000|372=W|373=0|10=077|8=FIX.4.4|9=111|35=3|34=135|49=T-BIGOH1M|52=20230921-08:38:28.162|56=T-GMEX|45=140|58=Invalid tag number|371=22000|372=W|373=0|10=073|8=FIX.4.4|9=111|35=3|34=136|49=T-BIGOH1M|52=20230921-08:38:28.184|56=T-GMEX|45=141|58=Invalid tag number|371=22000|372=W|373=0|10=079|8=FIX.4.4|9=111|35=3|34=137|49=T-BIGOH1M|52=20230921-08:38:28.206|56=T-GMEX|45=142|58=Invalid tag number|371=22000|372=W|373=0|10=076|8=FIX.4.4|9=111|35=3|34=138|49=T-BIGOH1M|52=20230921-08:38:28.227|56=T-GMEX|45=143|58=Invalid tag number|371=22000|372=W|373=0|10=081|8=FIX.4.4|9=111|35=3|34=139|49=T-BIGOH1M|52=20230921-08:38:28.248|56=T-GMEX|45=144|58=Invalid tag number|371=22000|372=W|373=0|10=086|8=FIX.4.4|9=111|35=3|34=140|49=T-BIGOH1M|52=20230921-08:38:28.268|56=T-GMEX|45=145|58=Invalid tag number|371=22000|372=W|373=0|10=081|8=FIX.4.4|9=111|35=3|34=141|49=T-BIGOH1M|52=20230921-08:38:28.291|56=T-GMEX|45=146|58=Invalid tag number|371=22000|372=W|373=0|10=079|8=FIX.4.4|9=111|35=3|34=142|49=T-BIGOH1M|52=20230921-08:38:28.313|56=T-GMEX|45=147|58=Invalid tag number|371=22000|372=W|373=0|10=076|8=FIX.4.4|9=111|35=3|34=143|49=T-BIGOH1M|52=20230921-08:38:28.336|56=T-GMEX|45=148|58=Invalid tag number|371=22000|372=W|373=0|10=083|8=FIX.4.4|9=111|35=3|34=144|49=T-BIGOH1M|52=20230921-08:38:28.357|56=T-GMEX|45=149|58=Invalid tag number|371=22000|372=W|373=0|10=088|8=FIX.4.4|9=111|35=3|34=145|49=T-BIGOH1M|52=20230921-08:38:28.380|56=T-GMEX|45=150|58=Invalid tag number|371=22000|372=W|373=0|10=077|8=FIX.4.4|9=111|35=3|34=146|49=T-BIGOH1M|52=20230921-08:38:28.401|56=T-GMEX|45=151|58=Invalid tag number|371=22000|372=W|373=0|10=073|8=FIX.4.4|9=111|35=3|34=147|49=T-BIGOH1M|52=20230921-08:38:28.421|56=T-GMEX|45=152|58=Invalid tag number|371=22000|372=W|373=0|10=077|8=FIX.4.4|9=111|35=3|34=148|49=T-BIGOH1M|52=20230921-08:38:28.443|56=T-GMEX|45=153|58=Invalid tag number|371=22000|372=W|373=0|10=083|8=FIX.4.4|9=111|35=3|34=149|49=T-BIGOH1M|52=20230921-08:38:28.464|56=T-GMEX|45=154|58=Invalid tag number|371=22000|372=W|373=0|10=088|8=FIX.4.4|9=111|35=3|34=150|49=T-BIGOH1M|52=20230921-08:38:28.485|56=T-GMEX|45=155|58=Invalid tag number|371=22000|372=W|373=0|10=084|8=FIX.4.4|9=111|35=3|34=151|49=T-BIGOH1M|52=20230921-08:38:28.508|56=T-GMEX|45=156|58=Invalid tag number|371=22000|372=W|373=0|10=082|8=FIX.4.4|9=111|35=3|34=152|49=T-BIGOH1M|52=20230921-08:38:28.531|56=T-GMEX|45=157|58=Invalid tag number|371=22000|372=W|373=0|10=080|8=FIX.4.4|9=111|35=3|34=153|49=T-BIGOH1M|52=20230921-08:38:28.553|56=T-GMEX|45=158|58=Invalid tag number|371=22000|372=W|373=0|10=086|8=FIX.4.4|9=111|35=3|34=154|49=T-BIGOH1M|52=20230921-08:38:28.574|56=T-GMEX|45=159|58=Invalid tag number|371=22000|372=W|373=0|10=091|8=FIX.4.4|9=111|35=3|34=155|49=T-BIGOH1M|52=20230921-08:38:28.595|56=T-GMEX|45=160|58=Invalid tag number|371=22000|372=W|373=0|10=087|8=FIX.4.4|9=111|35=3|34=156|49=T-BIGOH1M|52=20230921-08:38:28.618|56=T-GMEX|45=161|58=Invalid tag number|371=22000|372=W|373=0|10=085|8=FIX.4.4|9=111|35=3|34=157|49=T-BIGOH1M|52=20230921-08:38:28.639|56=T-GMEX|45=162|58=Invalid tag number|371=22000|372=W|373=0|10=090|8=FIX.4.4|9=111|35=3|34=158|49=T-BIGOH1M|52=20230921-08:38:28.661|56=T-GMEX|45=163|58=Invalid tag number|371=22000|372=W|373=0|10=087|8=FIX.4.4|9=111|35=3|34=159|49=T-BIGOH1M|52=20230921-08:38:28.685|56=T-GMEX|45=164|58=Invalid tag number|371=22000|372=W|373=0|10=095|8=FIX.4.4|9=111|35=3|34=160|49=T-BIGOH1M|52=20230921-08:38:28.707|56=T-GMEX|45=165|58=Invalid tag number|371=22000|372=W|373=0|10=083|8=FIX.4.4|9=111|35=3|34=161|49=T-BIGOH1M|52=20230921-08:38:28.729|56=T-GMEX|45=166|58=Invalid tag number|371=22000|372=W|373=0|10=089|8=FIX.4.4|9=111|35=3|34=162|49=T-BIGOH1M|52=20230921-08:38:28.750|56=T-GMEX|45=167|58=Invalid tag number|371=22000|372=W|373=0|10=085|8=FIX.4.4|9=111|35=3|34=163|49=T-BIGOH1M|52=20230921-08:38:28.771|56=T-GMEX|45=168|58=Invalid tag number|371=22000|372=W|373=0|10=090|8=FIX.4.4|9=111|35=3|34=164|49=T-BIGOH1M|52=20230921-08:38:28.790|56=T-GMEX|45=169|58=Invalid tag number|371=22000|372=W|373=0|10=093|8=FIX.4.4|9=111|35=3|34=165|49=T-BIGOH1M|52=20230921-08:38:28.812|56=T-GMEX|45=170|58=Invalid tag number|371=22000|372=W|373=0|10=081|8=FIX.4.4|9=111|35=3|34=166|49=T-BIGOH1M|52=20230921-08:38:28.834|56=T-GMEX|45=171|58=Invalid tag number|371=22000|372=W|373=0|10=087|8=FIX.4.4|9=111|35=3|34=167|49=T-BIGOH1M|52=20230921-08:38:28.857|56=T-GMEX|45=172|58=Invalid tag number|371=22000|372=W|373=0|10=094|8=FIX.4.4|9=111|35=3|34=168|49=T-BIGOH1M|52=20230921-08:38:28.878|56=T-GMEX|45=173|58=Invalid tag number|371=22000|372=W|373=0|10=099|8=FIX.4.4|9=111|35=3|34=169|49=T-BIGOH1M|52=20230921-08:38:28.899|56=T-GMEX|45=174|58=Invalid tag number|371=22000|372=W|373=0|10=104|8=FIX.4.4|9=111|35=3|34=170|49=T-BIGOH1M|52=20230921-08:38:28.921|56=T-GMEX|45=175|58=Invalid tag number|371=22000|372=W|373=0|10=083|8=FIX.4.4|9=111|35=3|34=171|49=T-BIGOH1M|52=20230921-08:38:28.943|56=T-GMEX|45=176|58=Invalid tag number|371=22000|372=W|373=0|10=089|8=FIX.4.4|9=111|35=3|34=172|49=T-BIGOH1M|52=20230921-08:38:28.964|56=T-GMEX|45=177|58=Invalid tag number|371=22000|372=W|373=0|10=094|8=FIX.4.4|9=111|35=3|34=173|49=T-BIGOH1M|52=20230921-08:38:28.986|56=T-GMEX|45=178|58=Invalid tag number|371=22000|372=W|373=0|10=100|8=FIX.4.4|9=111|35=3|34=174|49=T-BIGOH1M|52=20230921-08:38:29.008|56=T-GMEX|45=179|58=Invalid tag number|371=22000|372=W|373=0|10=088|8=FIX.4.4|9=111|35=3|34=175|49=T-BIGOH1M|52=20230921-08:38:29.029|56=T-GMEX|45=180|58=Invalid tag number|371=22000|372=W|373=0|10=084|8=FIX.4.4|9=111|35=3|34=176|49=T-BIGOH1M|52=20230921-08:38:29.050|56=T-GMEX|45=181|58=Invalid tag number|371=22000|372=W|373=0|10=080|8=FIX.4.4|9=111|35=3|34=177|49=T-BIGOH1M|52=20230921-08:38:29.071|56=T-GMEX|45=182|58=Invalid tag number|371=22000|372=W|373=0|10=085|8=FIX.4.4|9=111|35=3|34=178|49=T-BIGOH1M|52=20230921-08:38:29.093|56=T-GMEX|45=183|58=Invalid tag number|371=22000|372=W|373=0|10=091|8=FIX.4.4|9=111|35=3|34=179|49=T-BIGOH1M|52=20230921-08:38:29.114|56=T-GMEX|45=184|58=Invalid tag number|371=22000|372=W|373=0|10=087|8=FIX.4.4|9=111|35=3|34=180|49=T-BIGOH1M|52=20230921-08:38:29.134|56=T-GMEX|45=185|58=Invalid tag number|371=22000|372=W|373=0|10=082|8=FIX.4.4|9=111|35=3|34=181|49=T-BIGOH1M|52=20230921-08:38:29.156|56=T-GMEX|45=186|58=Invalid tag number|371=22000|372=W|373=0|10=088|8=FIX.4.4|9=111|35=3|34=182|49=T-BIGOH1M|52=20230921-08:38:29.176|56=T-GMEX|45=187|58=Invalid tag number|371=22000|372=W|373=0|10=092|8=FIX.4.4|9=111|35=3|34=183|49=T-BIGOH1M|52=20230921-08:38:29.197|56=T-GMEX|45=188|58=Invalid tag number|371=22000|372=W|373=0|10=097|8=FIX.4.4|9=111|35=3|34=184|49=T-BIGOH1M|52=20230921-08:38:29.220|56=T-GMEX|45=189|58=Invalid tag number|371=22000|372=W|373=0|10=086|8=FIX.4.4|9=111|35=3|34=185|49=T-BIGOH1M|52=20230921-08:38:29.242|56=T-GMEX|45=190|58=Invalid tag number|371=22000|372=W|373=0|10=083|8=FIX.4.4|9=111|35=3|34=186|49=T-BIGOH1M|52=20230921-08:38:29.262|56=T-GMEX|45=191|58=Invalid tag number|371=22000|372=W|373=0|10=087|8=FIX.4.4|9=111|35=3|34=187|49=T-BIGOH1M|52=20230921-08:38:29.283|56=T-GMEX|45=192|58=Invalid tag number|371=22000|372=W|373=0|10=092|8=FIX.4.4|9=111|35=3|34=188|49=T-BIGOH1M|52=20230921-08:38:29.303|56=T-GMEX|45=193|58=Invalid tag number|371=22000|372=W|373=0|10=087|8=FIX.4.4|9=111|35=3|34=189|49=T-BIGOH1M|52=20230921-08:38:29.324|56=T-GMEX|45=194|58=Invalid tag number|371=22000|372=W|373=0|10=092|8=FIX.4.4|9=111|35=3|34=190|49=T-BIGOH1M|52=20230921-08:38:29.346|56=T-GMEX|45=195|58=Invalid tag number|371=22000|372=W|373=0|10=089|8=FIX.4.4|9=111|35=3|34=191|49=T-BIGOH1M|52=20230921-08:38:29.370|56=T-GMEX|45=196|58=Invalid tag number|371=22000|372=W|373=0|10=088|8=FIX.4.4|9=111|35=3|34=192|49=T-BIGOH1M|52=20230921-08:38:29.394|56=T-GMEX|45=197|58=Invalid tag number|371=22000|372=W|373=0|10=096|8=FIX.4.4|9=111|35=3|34=193|49=T-BIGOH1M|52=20230921-08:38:29.419|56=T-GMEX|45=198|58=Invalid tag number|371=22000|372=W|373=0|10=096|8=FIX.4.4|9=111|35=3|34=194|49=T-BIGOH1M|52=20230921-08:38:29.442|56=T-GMEX|45=199|58=Invalid tag number|371=22000|372=W|373=0|10=094|8=FIX.4.4|9=111|35=3|34=195|49=T-BIGOH1M|52=20230921-08:38:29.462|56=T-GMEX|45=200|58=Invalid tag number|371=22000|372=W|373=0|10=080|8=FIX.4.4|9=111|35=3|34=196|49=T-BIGOH1M|52=20230921-08:38:29.482|56=T-GMEX|45=201|58=Invalid tag number|371=22000|372=W|373=0|10=084|8=FIX.4.4|9=111|35=3|34=197|49=T-BIGOH1M|52=20230921-08:38:29.502|56=T-GMEX|45=202|58=Invalid tag number|371=22000|372=W|373=0|10=079|8=FIX.4.4|9=111|35=3|34=198|49=T-BIGOH1M|52=20230921-08:38:29.522|56=T-GMEX|45=203|58=Invalid tag number|371=22000|372=W|373=0|10=083|8=FIX.4.4|9=111|35=3|34=199|49=T-BIGOH1M|52=20230921-08:38:29.545|56=T-GMEX|45=204|58=Invalid tag number|371=22000|372=W|373=0|10=090|8=FIX.4.4|9=111|35=3|34=200|49=T-BIGOH1M|52=20230921-08:38:29.567|56=T-GMEX|45=205|58=Invalid tag number|371=22000|372=W|373=0|10=078|8=FIX.4.4|9=111|35=3|34=201|49=T-BIGOH1M|52=20230921-08:38:29.591|56=T-GMEX|45=206|58=Invalid tag number|371=22000|372=W|373=0|10=077|8=FIX.4.4|9=111|35=3|34=202|49=T-BIGOH1M|52=20230921-08:38:29.611|56=T-GMEX|45=207|58=Invalid tag number|371=22000|372=W|373=0|10=072|8=FIX.4.4|9=111|35=3|34=203|49=T-BIGOH1M|52=20230921-08:38:29.631|56=T-GMEX|45=208|58=Invalid tag number|371=22000|372=W|373=0|10=076|8=FIX.4.4|9=111|35=3|34=204|49=T-BIGOH1M|52=20230921-08:38:29.652|56=T-GMEX|45=209|58=Invalid tag number|371=22000|372=W|373=0|10=081|8=FIX.4.4|9=111|35=3|34=205|49=T-BIGOH1M|52=20230921-08:38:29.674|56=T-GMEX|45=210|58=Invalid tag number|371=22000|372=W|373=0|10=078|8=FIX.4.4|9=111|35=3|34=206|49=T-BIGOH1M|52=20230921-08:38:29.692|56=T-GMEX|45=211|58=Invalid tag number|371=22000|372=W|373=0|10=080|8=FIX.4.4|9=111|35=3|34=207|49=T-BIGOH1M|52=20230921-08:38:29.717|56=T-GMEX|45=212|58=Invalid tag number|371=22000|372=W|373=0|10=080|8=FIX.4.4|9=111|35=3|34=208|49=T-BIGOH1M|52=20230921-08:38:29.739|56=T-GMEX|45=213|58=Invalid tag number|371=22000|372=W|373=0|10=086|8=FIX.4.4|9=111|35=3|34=209|49=T-BIGOH1M|52=20230921-08:38:29.761|56=T-GMEX|45=214|58=Invalid tag number|371=22000|372=W|373=0|10=083|8=FIX.4.4|9=111|35=3|34=210|49=T-BIGOH1M|52=20230921-08:38:29.782|56=T-GMEX|45=215|58=Invalid tag number|371=22000|372=W|373=0|10=079|8=FIX.4.4|9=111|35=3|34=211|49=T-BIGOH1M|52=20230921-08:38:29.806|56=T-GMEX|45=216|58=Invalid tag number|371=22000|372=W|373=0|10=078|8=FIX.4.4|9=111|35=3|34=212|49=T-BIGOH1M|52=20230921-08:38:29.828|56=T-GMEX|45=217|58=Invalid tag number|371=22000|372=W|373=0|10=084|8=FIX.4.4|9=111|35=3|34=213|49=T-BIGOH1M|52=20230921-08:38:29.850|56=T-GMEX|45=218|58=Invalid tag number|371=22000|372=W|373=0|10=081|8=FIX.4.4|9=111|35=3|34=214|49=T-BIGOH1M|52=20230921-08:38:29.885|56=T-GMEX|45=219|58=Invalid tag number|371=22000|372=W|373=0|10=091|8=FIX.4.4|9=111|35=3|34=215|49=T-BIGOH1M|52=20230921-08:38:29.907|56=T-GMEX|45=220|58=Invalid tag number|371=22000|372=W|373=0|10=079|8=FIX.4.4|9=111|35=3|34=216|49=T-BIGOH1M|52=20230921-08:38:29.929|56=T-GMEX|45=221|58=Invalid tag number|371=22000|372=W|373=0|10=085|8=FIX.4.4|9=111|35=3|34=217|49=T-BIGOH1M|52=20230921-08:38:29.951|56=T-GMEX|45=222|58=Invalid tag number|371=22000|372=W|373=0|10=082|8=FIX.4.4|9=111|35=3|34=218|49=T-BIGOH1M|52=20230921-08:38:29.971|56=T-GMEX|45=223|58=Invalid tag number|371=22000|372=W|373=0|10=086|8=FIX.4.4|9=111|35=3|34=219|49=T-BIGOH1M|52=20230921-08:38:29.993|56=T-GMEX|45=224|58=Invalid tag number|371=22000|372=W|373=0|10=092|8=FIX.4.4|9=111|35=3|34=220|49=T-BIGOH1M|52=20230921-08:38:30.013|56=T-GMEX|45=225|58=Invalid tag number|371=22000|372=W|373=0|10=060|8=FIX.4.4|9=111|35=3|34=221|49=T-BIGOH1M|52=20230921-08:38:30.038|56=T-GMEX|45=226|58=Invalid tag number|371=22000|372=W|373=0|10=069|8=FIX.4.4|9=111|35=3|34=222|49=T-BIGOH1M|52=20230921-08:38:30.059|56=T-GMEX|45=227|58=Invalid tag number|371=22000|372=W|373=0|10=074|8=FIX.4.4|9=111|35=3|34=223|49=T-BIGOH1M|52=20230921-08:38:30.080|56=T-GMEX|45=228|58=Invalid tag number|371=22000|372=W|373=0|10=070|8=FIX.4.4|9=111|35=3|34=224|49=T-BIGOH1M|52=20230921-08:38:30.099|56=T-GMEX|45=229|58=Invalid tag number|371=22000|372=W|373=0|10=082|8=FIX.4.4|9=111|35=3|34=225|49=T-BIGOH1M|52=20230921-08:38:30.122|56=T-GMEX|45=230|58=Invalid tag number|371=22000|372=W|373=0|10=062|8=FIX.4.4|9=111|35=3|34=226|49=T-BIGOH1M|52=20230921-08:38:30.144|56=T-GMEX|45=231|58=Invalid tag number|371=22000|372=W|373=0|10=068|8=FIX.4.4|9=111|35=3|34=227|49=T-BIGOH1M|52=20230921-08:38:30.167|56=T-GMEX|45=232|58=Invalid tag number|371=22000|372=W|373=0|10=075|8=FIX.4.4|9=111|35=3|34=228|49=T-BIGOH1M|52=20230921-08:38:30.188|56=T-GMEX|45=233|58=Invalid tag number|371=22000|372=W|373=0|10=080|8=FIX.4.4|9=111|35=3|34=229|49=T-BIGOH1M|52=20230921-08:38:30.210|56=T-GMEX|45=234|58=Invalid tag number|371=22000|372=W|373=0|10=068|8=FIX.4.4|9=111|35=3|34=230|49=T-BIGOH1M|52=20230921-08:38:30.233|56=T-GMEX|45=235|58=Invalid tag number|371=22000|372=W|373=0|10=066|8=FIX.4.4|9=111|35=3|34=231|49=T-BIGOH1M|52=20230921-08:38:30.254|56=T-GMEX|45=236|58=Invalid tag number|371=22000|372=W|373=0|10=071|8=FIX.4.4|9=111|35=3|34=232|49=T-BIGOH1M|52=20230921-08:38:30.275|56=T-GMEX|45=237|58=Invalid tag number|371=22000|372=W|373=0|10=076|8=FIX.4.4|9=111|35=3|34=233|49=T-BIGOH1M|52=20230921-08:38:30.294|56=T-GMEX|45=238|58=Invalid tag number|371=22000|372=W|373=0|10=079|8=FIX.4.4|9=60|35=0|34=234|49=T-BIGOH1M|52=20230921-08:39:00.409|56=T-GMEX|10=088|8=FIX.4.4|9=60|35=0|34=235|49=T-BIGOH1M|52=20230921-08:39:30.432|56=T-GMEX|10=088|8=FIX.4.4|9=60|35=0|34=236|49=T-BIGOH1M|52=20230921-08:40:01.412|56=T-GMEX|10=077|8=FIX.4.4|9=60|35=0|34=237|49=T-BIGOH1M|52=20230921-08:40:31.437|56=T-GMEX|10=088|8=FIX.4.4|9=60|35=0|34=238|49=T-BIGOH1M|52=20230921-08:41:01.635|56=T-GMEX|10=087|8=FIX.4.4|9=60|35=0|34=239|49=T-BIGOH1M|52=20230921-08:41:32.468|56=T-GMEX|10=096|8=FIX.4.4|9=60|35=0|34=240|49=T-BIGOH1M|52=20230921-08:42:02.516|56=T-GMEX|10=080|8=FIX.4.4|9=60|35=0|34=241|49=T-BIGOH1M|52=20230921-08:42:33.432|56=T-GMEX|10=082|8=FIX.4.4|9=60|35=0|34=242|49=T-BIGOH1M|52=20230921-08:43:03.472|56=T-GMEX|10=085|