8=FIX.4.4|9=69|35=A|34=1|49=T-BIGOH1|52=20230920-07:58:30.550|56=T-GMEX|98=0|108=30|10=213|8=FIX.4.4|9=57|35=5|34=2|49=T-BIGOH1|52=20230920-07:58:30.624|56=T-GMEX|10=176|8=FIX.4.4|9=69|35=A|34=3|49=T-BIGOH1|52=20230920-07:58:35.552|56=T-GMEX|98=0|108=30|10=222|8=FIX.4.4|9=57|35=5|34=4|49=T-BIGOH1|52=20230920-07:58:35.579|56=T-GMEX|10=192|8=FIX.4.4|9=69|35=A|34=5|49=T-BIGOH1|52=20230920-07:58:40.565|56=T-GMEX|98=0|108=30|10=224|8=FIX.4.4|9=57|35=5|34=6|49=T-BIGOH1|52=20230920-07:58:40.575|56=T-GMEX|10=186|8=FIX.4.4|9=69|35=A|34=7|49=T-BIGOH1|52=20230920-07:58:45.716|56=T-GMEX|98=0|108=30|10=229|8=FIX.4.4|9=57|35=5|34=8|49=T-BIGOH1|52=20230920-07:58:46.019|56=T-GMEX|10=187|8=FIX.4.4|9=69|35=A|34=9|49=T-BIGOH1|52=20230920-07:58:50.660|56=T-GMEX|98=0|108=30|10=225|8=FIX.4.4|9=58|35=5|34=10|49=T-BIGOH1|52=20230920-07:58:50.677|56=T-GMEX|10=234|8=FIX.4.4|9=70|35=A|34=11|49=T-BIGOH1|52=20230920-07:58:55.705|56=T-GMEX|98=0|108=30|10=007|8=FIX.4.4|9=58|35=5|34=12|49=T-BIGOH1|52=20230920-07:58:55.717|56=T-GMEX|10=236|8=FIX.4.4|9=70|35=A|34=13|49=T-BIGOH1|52=20230920-07:59:00.756|56=T-GMEX|98=0|108=30|10=006|8=FIX.4.4|9=58|35=5|34=14|49=T-BIGOH1|52=20230920-07:59:00.770|56=T-GMEX|10=228|8=FIX.4.4|9=70|35=A|34=15|49=T-BIGOH1|52=20230920-07:59:13.266|56=T-GMEX|98=0|108=30|10=008|8=FIX.4.4|9=58|35=5|34=16|49=T-BIGOH1|52=20230920-07:59:13.338|56=T-GMEX|10=234|8=FIX.4.4|9=70|35=A|34=17|49=T-BIGOH1|52=20230920-07:59:18.237|56=T-GMEX|98=0|108=30|10=013|8=FIX.4.4|9=67|35=2|34=18|49=T-BIGOH1|52=20230920-07:59:18.266|56=T-GMEX|7=9|16=0|10=113|8=FIX.4.4|9=104|35=j|34=19|49=T-BIGOH1|52=20230920-07:59:18.386|56=T-GMEX|45=27|58=Unsupported Message Type|372=B|380=3|10=133|8=FIX.4.4|9=104|35=j|34=20|49=T-BIGOH1|52=20230920-07:59:18.419|56=T-GMEX|45=28|58=Unsupported Message Type|372=B|380=3|10=123|8=FIX.4.4|9=104|35=j|34=21|49=T-BIGOH1|52=20230920-07:59:18.453|56=T-GMEX|45=29|58=Unsupported Message Type|372=B|380=3|10=123|8=FIX.4.4|9=104|35=j|34=22|49=T-BIGOH1|52=20230920-07:59:18.487|56=T-GMEX|45=30|58=Unsupported Message Type|372=B|380=3|10=123|8=FIX.4.4|9=58|35=5|34=23|49=T-BIGOH1|52=20230920-07:59:45.730|56=T-GMEX|10=233|8=FIX.4.4|9=70|35=A|34=24|49=T-BIGOH1|52=20230920-08:00:30.378|56=T-GMEX|98=0|108=30|10=254|8=FIX.4.4|9=104|35=j|34=25|49=T-BIGOH1|52=20230920-08:00:30.515|56=T-GMEX|45=33|58=Unsupported Message Type|372=B|380=3|10=102|8=FIX.4.4|9=104|35=j|34=26|49=T-BIGOH1|52=20230920-08:00:30.535|56=T-GMEX|45=34|58=Unsupported Message Type|372=B|380=3|10=106|8=FIX.4.4|9=104|35=j|34=27|49=T-BIGOH1|52=20230920-08:00:30.557|56=T-GMEX|45=35|58=Unsupported Message Type|372=B|380=3|10=112|8=FIX.4.4|9=104|35=j|34=28|49=T-BIGOH1|52=20230920-08:00:30.576|56=T-GMEX|45=36|58=Unsupported Message Type|372=B|380=3|10=115|8=FIX.4.4|9=58|35=0|34=29|49=T-BIGOH1|52=20230920-08:01:00.687|56=T-GMEX|10=224|8=FIX.4.4|9=58|35=0|34=30|49=T-BIGOH1|52=20230920-08:01:31.644|56=T-GMEX|10=213|8=FIX.4.4|9=58|35=0|34=31|49=T-BIGOH1|52=20230920-08:02:01.806|56=T-GMEX|10=212|8=FIX.4.4|9=58|35=0|34=32|49=T-BIGOH1|52=20230920-08:02:32.653|56=T-GMEX|10=217|8=FIX.4.4|9=58|35=0|34=33|49=T-BIGOH1|52=20230920-08:03:02.770|56=T-GMEX|10=216|8=FIX.4.4|9=58|35=0|34=34|49=T-BIGOH1|52=20230920-08:03:33.670|56=T-GMEX|10=220|8=FIX.4.4|9=58|35=0|34=35|49=T-BIGOH1|52=20230920-08:04:03.726|56=T-GMEX|10=221|8=FIX.4.4|9=58|35=0|34=36|49=T-BIGOH1|52=20230920-08:04:33.738|56=T-GMEX|10=228|8=FIX.4.4|9=58|35=0|34=37|49=T-BIGOH1|52=20230920-08:05:03.841|56=T-GMEX|10=222|8=FIX.4.4|9=58|35=0|34=38|49=T-BIGOH1|52=20230920-08:05:34.754|56=T-GMEX|10=230|8=FIX.4.4|9=58|35=0|34=39|49=T-BIGOH1|52=20230920-08:06:05.755|56=T-GMEX|10=231|8=FIX.4.4|9=58|35=0|34=40|49=T-BIGOH1|52=20230920-08:06:35.773|56=T-GMEX|10=226|8=FIX.4.4|9=58|35=0|34=41|49=T-BIGOH1|52=20230920-08:07:06.669|56=T-GMEX|10=230|8=FIX.4.4|9=58|35=0|34=42|49=T-BIGOH1|52=20230920-08:07:36.784|56=T-GMEX|10=232|8=FIX.4.4|9=58|35=0|34=43|49=T-BIGOH1|52=20230920-08:08:07.788|56=T-GMEX|10=236|8=FIX.4.4|9=58|35=0|34=44|49=T-BIGOH1|52=20230920-08:08:37.804|56=T-GMEX|10=229|8=FIX.4.4|9=58|35=0|34=45|49=T-BIGOH1|52=20230920-08:09:08.711|56=T-GMEX|10=226|8=FIX.4.4|9=58|35=0|34=46|49=T-BIGOH1|52=20230920-08:09:38.812|56=T-GMEX|10=232|8=FIX.4.4|9=58|35=0|34=47|49=T-BIGOH1|52=20230920-08:10:08.961|56=T-GMEX|10=227|8=FIX.4.4|9=58|35=0|34=48|49=T-BIGOH1|52=20230920-08:10:39.831|56=T-GMEX|10=228|8=FIX.4.4|9=58|35=0|34=49|49=T-BIGOH1|52=20230920-08:11:10.735|56=T-GMEX|10=222|8=FIX.4.4|9=58|35=0|34=50|49=T-BIGOH1|52=20230920-08:11:40.758|56=T-GMEX|10=222|8=FIX.4.4|9=58|35=0|34=51|49=T-BIGOH1|52=20230920-08:12:11.746|56=T-GMEX|10=219|8=FIX.4.4|9=58|35=0|34=52|49=T-BIGOH1|52=20230920-08:12:41.766|56=T-GMEX|10=225|8=FIX.4.4|9=58|35=0|34=53|49=T-BIGOH1|52=20230920-08:13:12.771|56=T-GMEX|10=221|8=FIX.4.4|9=58|35=0|34=54|49=T-BIGOH1|52=20230920-08:13:42.798|56=T-GMEX|10=234|8=FIX.4.4|9=58|35=0|34=55|49=T-BIGOH1|52=20230920-08:14:13.791|56=T-GMEX|10=227|8=FIX.4.4|9=58|35=0|34=56|49=T-BIGOH1|52=20230920-08:14:43.798|56=T-GMEX|10=238|8=FIX.4.4|9=58|35=0|34=57|49=T-BIGOH1|52=20230920-08:15:14.767|56=T-GMEX|10=234|8=FIX.4.4|9=58|35=0|34=58|49=T-BIGOH1|52=20230920-08:15:44.772|56=T-GMEX|10=234|8=FIX.4.4|9=58|35=0|34=59|49=T-BIGOH1|52=20230920-08:16:15.774|56=T-GMEX|10=236|8=FIX.4.4|9=58|35=0|34=60|49=T-BIGOH1|52=20230920-08:16:45.827|56=T-GMEX|10=230|8=FIX.4.4|9=58|35=0|34=61|49=T-BIGOH1|52=20230920-08:17:15.843|56=T-GMEX|10=227|8=FIX.4.4|9=58|35=0|34=62|49=T-BIGOH1|52=20230920-08:17:46.827|56=T-GMEX|10=234|8=FIX.4.4|9=58|35=0|34=63|49=T-BIGOH1|52=20230920-08:18:16.844|56=T-GMEX|10=232|8=FIX.4.4|9=58|35=0|34=64|49=T-BIGOH1|52=20230920-08:18:47.846|56=T-GMEX|10=239|8=FIX.4.4|9=58|35=0|34=65|49=T-BIGOH1|52=20230920-08:19:17.859|56=T-GMEX|10=242|8=FIX.4.4|9=58|35=0|34=66|49=T-BIGOH1|52=20230920-08:19:47.891|56=T-GMEX|10=242|8=FIX.4.4|9=70|35=A|34=67|49=T-BIGOH1|52=20230920-08:24:03.042|56=T-GMEX|98=0|108=30|10=255|8=FIX.4.4|9=70|35=A|34=68|49=T-BIGOH1|52=20230920-08:24:08.006|56=T-GMEX|98=0|108=30|10=005|8=FIX.4.4|9=70|35=A|34=69|49=T-BIGOH1|52=20230920-08:24:13.056|56=T-GMEX|98=0|108=30|10=007|8=FIX.4.4|9=70|35=A|34=70|49=T-BIGOH1|52=20230920-08:24:18.105|56=T-GMEX|98=0|108=30|10=255|8=FIX.4.4|9=70|35=A|34=71|49=T-BIGOH1|52=20230920-08:24:23.200|56=T-GMEX|98=0|108=30|10=248|8=FIX.4.4|9=70|35=A|34=72|49=T-BIGOH1|52=20230920-08:24:39.355|56=T-GMEX|98=0|108=30|10=011|8=FIX.4.4|9=70|35=A|34=73|49=T-BIGOH1|52=20230920-08:24:44.239|56=T-GMEX|98=0|108=30|10=009|8=FIX.4.4|9=70|35=A|34=74|49=T-BIGOH1|52=20230920-08:24:49.293|56=T-GMEX|98=0|108=30|10=015|8=FIX.4.4|9=70|35=A|34=75|49=T-BIGOH1|52=20230920-08:24:54.373|56=T-GMEX|98=0|108=30|10=011|8=FIX.4.4|9=70|35=A|34=76|49=T-BIGOH1|52=20230920-08:24:59.397|56=T-GMEX|98=0|108=30|10=023|8=FIX.4.4|9=70|35=A|34=77|49=T-BIGOH1|52=20230920-08:25:04.454|56=T-GMEX|98=0|108=30|10=009|8=FIX.4.4|9=70|35=A|34=78|49=T-BIGOH1|52=20230920-08:25:09.510|56=T-GMEX|98=0|108=30|10=008|8=FIX.4.4|9=70|35=A|34=79|49=T-BIGOH1|52=20230920-08:26:07.468|56=T-GMEX|98=0|108=30|10=020|8=FIX.4.4|9=104|35=j|34=80|49=T-BIGOH1|52=20230920-08:26:07.698|56=T-GMEX|45=78|58=Unsupported Message Type|372=B|380=3|10=136|8=FIX.4.4|9=104|35=j|34=81|49=T-BIGOH1|52=20230920-08:26:07.750|56=T-GMEX|45=79|58=Unsupported Message Type|372=B|380=3|10=127|8=FIX.4.4|9=104|35=j|34=82|49=T-BIGOH1|52=20230920-08:26:07.792|56=T-GMEX|45=80|58=Unsupported Message Type|372=B|380=3|10=126|8=FIX.4.4|9=104|35=j|34=83|49=T-BIGOH1|52=20230920-08:26:07.858|56=T-GMEX|45=81|58=Unsupported Message Type|372=B|380=3|10=131|8=FIX.4.4|9=58|35=0|34=84|49=T-BIGOH1|52=20230920-08:26:38.648|56=T-GMEX|10=240|8=FIX.4.4|9=58|35=0|34=85|49=T-BIGOH1|52=20230920-08:27:09.656|56=T-GMEX|10=239|8=FIX.4.4|9=58|35=0|34=86|49=T-BIGOH1|52=20230920-08:27:39.661|56=T-GMEX|10=239|8=FIX.4.4|9=58|35=0|34=87|49=T-BIGOH1|52=20230920-08:28:09.662|56=T-GMEX|10=239|8=FIX.4.4|9=58|35=0|34=88|49=T-BIGOH1|52=20230920-08:28:39.758|56=T-GMEX|10=249|8=FIX.4.4|9=58|35=0|34=89|49=T-BIGOH1|52=20230920-08:29:09.759|56=T-GMEX|10=249|8=FIX.4.4|9=58|35=0|34=90|49=T-BIGOH1|52=20230920-08:29:39.770|56=T-GMEX|10=237|8=FIX.4.4|9=104|35=j|34=91|49=T-BIGOH1|52=20230920-08:30:00.914|56=T-GMEX|45=89|58=Unsupported Message Type|372=B|380=3|10=119|8=FIX.4.4|9=104|35=j|34=92|49=T-BIGOH1|52=20230920-08:30:00.959|56=T-GMEX|45=90|58=Unsupported Message Type|372=B|380=3|10=121|8=FIX.4.4|9=58|35=0|34=93|49=T-BIGOH1|52=20230920-08:30:31.245|56=T-GMEX|10=221|8=FIX.4.4|9=58|35=0|34=94|49=T-BIGOH1|52=20230920-08:31:01.583|56=T-GMEX|10=225|8=FIX.4.4|9=67|35=1|34=95|49=T-BIGOH1|52=20230920-08:31:47.415|56=T-GMEX|112=TEST|10=249|8=FIX.4.4|9=67|35=0|34=96|49=T-BIGOH1|52=20230920-08:31:53.514|56=T-GMEX|112=TEST|10=246|8=FIX.4.4|9=58|35=0|34=97|49=T-BIGOH1|52=20230920-08:32:23.757|56=T-GMEX|10=236|8=FIX.4.4|9=58|35=0|34=98|49=T-BIGOH1|52=20230920-08:32:54.757|56=T-GMEX|10=241|8=FIX.4.4|9=70|35=A|34=99|49=T-BIGOH1|52=20230920-08:33:15.270|56=T-GMEX|98=0|108=30|10=010|8=FIX.4.4|9=105|35=j|34=100|49=T-BIGOH1|52=20230920-08:33:22.451|56=T-GMEX|45=99|58=Unsupported Message Type|372=B|380=3|10=163|8=FIX.4.4|9=106|35=j|34=101|49=T-BIGOH1|52=20230920-08:33:24.987|56=T-GMEX|45=100|58=Unsupported Message Type|372=B|380=3|10=212|8=FIX.4.4|9=106|35=j|34=102|49=T-BIGOH1|52=20230920-08:33:26.297|56=T-GMEX|45=101|58=Unsupported Message Type|372=B|380=3|10=210|8=FIX.4.4|9=106|35=j|34=103|49=T-BIGOH1|52=20230920-08:33:27.591|56=T-GMEX|45=102|58=Unsupported Message Type|372=B|380=3|10=210|8=FIX.4.4|9=71|35=A|34=104|49=T-BIGOH1|52=20230920-08:34:02.351|56=T-GMEX|98=0|108=30|10=043|8=FIX.4.4|9=106|35=j|34=105|49=T-BIGOH1|52=20230920-08:34:03.590|56=T-GMEX|45=104|58=Unsupported Message Type|372=B|380=3|10=208|8=FIX.4.4|9=106|35=j|34=106|49=T-BIGOH1|52=20230920-08:34:03.961|56=T-GMEX|45=105|58=Unsupported Message Type|372=B|380=3|10=212|8=FIX.4.4|9=106|35=j|34=107|49=T-BIGOH1|52=20230920-08:34:04.354|56=T-GMEX|45=106|58=Unsupported Message Type|372=B|380=3|10=211|8=FIX.4.4|9=106|35=j|34=108|49=T-BIGOH1|52=20230920-08:34:04.737|56=T-GMEX|45=107|58=Unsupported Message Type|372=B|380=3|10=218|8=FIX.4.4|9=68|35=1|34=109|49=T-BIGOH1|52=20230920-08:34:43.803|56=T-GMEX|112=TEST|10=038|8=FIX.4.4|9=71|35=A|34=110|49=T-BIGOH1|52=20230920-08:35:21.888|56=T-GMEX|98=0|108=30|10=057|8=FIX.4.4|9=106|35=j|34=111|49=T-BIGOH1|52=20230920-08:35:32.605|56=T-GMEX|45=111|58=Unsupported Message Type|372=B|380=3|10=203|8=FIX.4.4|9=106|35=j|34=112|49=T-BIGOH1|52=20230920-08:35:38.110|56=T-GMEX|45=112|58=Unsupported Message Type|372=B|380=3|10=202|8=FIX.4.4|9=106|35=j|34=113|49=T-BIGOH1|52=20230920-08:35:38.135|56=T-GMEX|45=113|58=Unsupported Message Type|372=B|380=3|10=211|8=FIX.4.4|9=106|35=j|34=114|49=T-BIGOH1|52=20230920-08:35:38.167|56=T-GMEX|45=114|58=Unsupported Message Type|372=B|380=3|10=218|8=FIX.4.4|9=59|35=0|34=115|49=T-BIGOH1|52=20230920-08:36:08.885|56=T-GMEX|10=029|8=FIX.4.4|9=59|35=0|34=116|49=T-BIGOH1|52=20230920-08:36:39.831|56=T-GMEX|10=025|8=FIX.4.4|9=59|35=0|34=117|49=T-BIGOH1|52=20230920-08:37:10.817|56=T-GMEX|10=020|8=FIX.4.4|9=59|35=0|34=118|49=T-BIGOH1|52=20230920-08:37:40.963|56=T-GMEX|10=026|8=FIX.4.4|9=59|35=0|34=119|49=T-BIGOH1|52=20230920-08:38:11.927|56=T-GMEX|10=026|8=FIX.4.4|9=59|35=0|34=120|49=T-BIGOH1|52=20230920-08:38:42.815|56=T-GMEX|10=018|8=FIX.4.4|9=59|35=0|34=121|49=T-BIGOH1|52=20230920-08:39:12.843|56=T-GMEX|10=018|8=FIX.4.4|9=71|35=A|34=122|49=T-BIGOH1|52=20230920-08:39:35.612|56=T-GMEX|98=0|108=30|10=054|8=FIX.4.4|9=106|35=j|34=123|49=T-BIGOH1|52=20230920-08:39:35.761|56=T-GMEX|45=124|58=Unsupported Message Type|372=B|380=3|10=220|8=FIX.4.4|9=106|35=j|34=124|49=T-BIGOH1|52=20230920-08:39:35.782|56=T-GMEX|45=125|58=Unsupported Message Type|372=B|380=3|10=225|8=FIX.4.4|9=106|35=j|34=125|49=T-BIGOH1|52=20230920-08:39:35.803|56=T-GMEX|45=126|58=Unsupported Message Type|372=B|380=3|10=221|8=FIX.4.4|9=106|35=j|34=126|49=T-BIGOH1|52=20230920-08:39:35.826|56=T-GMEX|45=127|58=Unsupported Message Type|372=B|380=3|10=228|8=FIX.4.4|9=59|35=0|34=127|49=T-BIGOH1|52=20230920-08:40:06.651|56=T-GMEX|10=016|8=FIX.4.4|9=71|35=A|34=128|49=T-BIGOH1|52=20230920-08:41:55.868|56=T-GMEX|98=0|108=30|10=068|8=FIX.4.4|9=59|35=0|34=129|49=T-BIGOH1|52=20230920-08:42:26.378|56=T-GMEX|10=028|