8=FIX.4.4|9=75|35=A|34=1|49=8853447740|52=20230801-13:46:56.553|56=8112442458|98=0|108=30|10=033|8=FIX.4.4|9=75|35=A|34=2|49=8853447740|52=20230801-13:47:26.697|56=8112442458|98=0|108=30|10=041|8=FIX.4.4|9=112|35=5|34=3|49=8853447740|52=20230801-13:47:26.801|56=8112442458|58=MsgSeqNum too low, expecting 2 but received 1|10=183|8=FIX.4.4|9=75|35=A|34=4|49=8853447740|52=20230801-13:47:31.716|56=8112442458|98=0|108=30|10=031|8=FIX.4.4|9=112|35=5|34=5|49=8853447740|52=20230801-13:47:31.729|56=8112442458|58=MsgSeqNum too low, expecting 2 but received 1|10=190|8=FIX.4.4|9=75|35=A|34=6|49=8853447740|52=20230801-13:47:36.752|56=8112442458|98=0|108=30|10=038|8=FIX.4.4|9=112|35=5|34=7|49=8853447740|52=20230801-13:47:36.772|56=8112442458|58=MsgSeqNum too low, expecting 2 but received 1|10=195|8=FIX.4.4|9=75|35=A|34=8|49=8853447740|52=20230801-13:47:41.782|56=8112442458|98=0|108=30|10=039|8=FIX.4.4|9=112|35=5|34=9|49=8853447740|52=20230801-13:47:41.799|56=8112442458|58=MsgSeqNum too low, expecting 2 but received 1|10=202|8=FIX.4.4|9=76|35=A|34=10|49=8853447740|52=20230801-13:49:34.633|56=8112442458|98=0|108=30|10=080|8=FIX.4.4|9=113|35=5|34=11|49=8853447740|52=20230801-13:49:34.764|56=8112442458|58=MsgSeqNum too low, expecting 2 but received 1|10=240|8=FIX.4.4|9=76|35=A|34=12|49=8853447740|52=20230801-13:49:37.287|56=8112442458|98=0|108=30|10=090|8=FIX.4.4|9=113|35=5|34=13|49=8853447740|52=20230801-13:49:37.308|56=8112442458|58=MsgSeqNum too low, expecting 2 but received 1|10=239|8=FIX.4.4|9=76|35=A|34=14|49=8853447740|52=20230801-13:49:42.319|56=8112442458|98=0|108=30|10=084|8=FIX.4.4|9=113|35=5|34=15|49=8853447740|52=20230801-13:49:42.335|56=8112442458|58=MsgSeqNum too low, expecting 2 but received 1|10=237|8=FIX.4.4|9=76|35=A|34=16|49=8853447740|52=20230801-13:49:47.362|56=8112442458|98=0|108=30|10=089|8=FIX.4.4|9=113|35=5|34=17|49=8853447740|52=20230801-13:49:47.380|56=8112442458|58=MsgSeqNum too low, expecting 2 but received 1|10=244|